:1000000012C019C018C017C016C015C014C013C044
:1000100012C011C010C00FC00EC00DC00CC00BC06C
:100020000AC009C008C011241FBECFE5D4E0DEBF5E
:10003000CDBF3DD04AC0E4CF86E085BB2FE78AE143
:1000400096E0215080409040E1F700C0000084E03D
:1000500085BB089526E025BB181619066CF420E030
:1000600030E0EFE4F3EC3197F1F700C000002F5FD0
:100070003F4F82179307A9F784E085BB089585E079
:1000800085BB20E030E08FE493EC0197F1F700C0EE
:10009000000096B39370933019F4C901DBDF089523
:1000A0002F5F3F4F2A30310571F715BA089517BAFF
:1000B0008FEF84BB86B38370813009F4BDDF86B3D4
:0E00C00083708230B9F7DBDFF5CFF894FFCF05
:00000001FF
